:020000040000FA
:0600000024EF03F01200E2
:020006000000F8
:06000800D4EF01F012002C
:02000E00C250DE
:08001000040B01E0010E1200D7
:06001800DDEF01F0120013
:02001E00D9CF38
:10002000E6FFE1CFD9FFE652150EE66E32EC03F0A3
:10003000E552838E040EE66E32EC03F0E552839EA9
:10004000080EDF6EDF5017E0150EE66E32EC03F09F
:10005000E552FE0EDBA0838E040EE66E32EC03F05A
:10006000E552839EFE0EDBCFF3FFF390F342F3CF16
:10007000DBFFDF06E7D7150EE66E32EC03F0E55244
:10008000040EE66E32EC03F0E552E552E552E7CF9E
:10009000D9FF1200D9CFE6FFE1CFD9FFACA2FED73E
:1000A000FE0EDBCFE6FFF7EC02F0E552E552E7CFBC
:1000B000D9FF1200D9CFE6FFE1CFD9FF120EE1261A
:1000C000F29EF29C959E839E949A829A0F0EDB6A12
:1000D000100EDB6A110EDB6A7E0EE66EC3EC02F0D8
:1000E000E5529368410EE66EE66A3C0EE66E35EC2C
:1000F00002F0E552E552E552070EE66EA40EE66EFA
:100100009FEC02F0E552E5520B0EDB6A0C0EDB6A47
:100110000D0EDB6A0E0EDB6A0B0EDBCF08F00C0E49
:10012000DBCF09F0040E081801E1095001E1E9D024
:10013000030E081801E1095001E181D0020E0818F0
:1001400001E109504EE0010E081801E109503FE0BD
:10015000085001E1095005E00B0EDB6A0C0EDB6A6A
:1001600018D10D0EDBCF08F00E0EDBCF09F0010E1B
:10017000081801E109501DE0085001E109500CE0A8
:10018000030EF36E0B0EF3CFDBFF0C0EDB6A0D0ECE
:10019000DB6A0E0EDB6A1AD0870EE66E0EEC03F0F9
:1001A000E552010EF36E0B0EF3CFDBFF0C0EDB6A94
:1001B0000DD08F0EE66E0EEC03F0E552010EF36EDD
:1001C0000B0EF3CFDBFF0C0EDB6A00D0E2D04DEC60
:1001D00003F0020EF36E0B0EF3CFDBFF0C0EDB6AA7
:1001E000D8D007EC00F0000929E13DEC03F0F3CF93
:1001F00016F0F4CF17F0D950020F146EDACF15F0C5
:10020000020E086E096A0D0EDBCF0DF00E0EDBCF6D
:100210000EF072EC02F014500624E96E155007201F
:10022000EA6E16C0EEFF17C0EDFF0D0EDB2A0E0EB4
:1002300001E3DB2A0B0EDB6A0C0EDB6AAAD0230E6D
:10024000F36E060EF3CFDBFF020EDBCF14F0030ECE
:10025000DBCF15F0000E1416FF0E151615C014F0A6
:10026000156A070E14C0DBFFFF0EE76E020EDBCF30
:1002700014F0030EDBCF15F0E7501416156A080EC4
:1002800014C0DBFF040EDBCF14F0050EDBCF15F03E
:10029000000E1416FF0E151615C014F0156A090E7F
:1002A00014C0DBFFFF0EE76E040EDBCF14F0050E6B
:1002B000DBCF15F0E7501416156A0A0E14C0DBFFE9
:1002C00081B002D0070EDB8481B202D0090EDB843C
:1002D000811CF00BE8407F0BE76E010EE7CFDBFFE0
:1002E000070EDBCFE7FF010EDB50E712070EE7CF6B
:1002F000DBFF040EF36E0B0EF3CFDBFF0C0EDB6A9D
:1003000048D0DF6ADFCF14F0050EE76E1418E8AEB0
:1003100002D0E73402D0E750145C2DE281A415D05E
:10032000D950060F146EDACF15F0DFCF16F0176A2A
:1003300016BE176814501624E96E15501720EA6E81
:10034000EF50E66EA7DEE55214D0D950060F146EBA
:10035000DACF15F0DFCF16F0176A16BE1768145003
:100360001624E96E15501720EA6EEF50E66E57DE40
:10037000E552DF2AC7D7050EE66EE0EC02F0E55243
:100380000D0EDB6A0E0EDB6A0B0EDB6A0C0EDB6AEF
:1003900000D0C2D6120EE15C02E2E16AE552E16EE3
:1003A000E552E7CFD9FF1200DACFE4FFE2CFDAFF60
:1003B000E652E552E5CFDAFF1100DACFE4FFE2CFF3
:0C03C000DAFFE652E552E5CFDAFF11004B
:0403CC00060EF66EB5
:1003D000000EF76E000EF86E00010900F550856FF3
:1003E0000900F550866F03E1856701D03DD0090013
:1003F000F550806F0900F550816F0900F550826F4C
:1004000009000900F550E96E0900F550EA6E09008F
:1004100009000900F550836F0900F550846F090049
:100420000900F6CF87F0F7CF88F0F8CF89F080C0C9
:10043000F6FF81C0F7FF82C0F8FF0001835302E19D
:10044000845307E00900F550EE6E8307F8E2840755
:10045000F9D787C0F6FF88C0F7FF89C0F8FF000111
:0A0460008507000E865BBFD712006F
:06046A00D9CFE6FFDACF56
:10047000E6FFE1CFD9FFE2CFDAFFAC6AAB6AFD0E4F
:10048000DBB0AC88DBA202D0AC8CAB8CDBB4AC8E26
:10049000DBA602D0AB8801D0AB8ADBA802D0AC844B
:1004A00001D0AC949E98DBAC02D09D8A01D09D9A7D
:1004B0009E9ADBAE02D09D8801D09D98FB0EDB504A
:1004C000AF6EAC8AAB8E949C948EAC50100B04E053
:1004D000AC50800B01E1948CE552E5CFDAFFE7CF19
:0404E000D9FF12002E
:0C04E40009C013F008C012F008500D020F
:1004F000F4CF07F0F3CF06F009500E02F4CF09F065
:10050000F3CF08F00D02F3500726F4500822E86AF2
:10051000092212500E02F3500726F4500822E86A0E
:1005200009220EAE98EF02F01250085E1350095ADD
:0E05300013AE000C0D50085E0E50095A000C60
:02053E00D9CF13
:10054000E6FFDACFE6FFE1CFD9FFE2CFDAFFC26AFA
:10055000FD0EDB50C16EFC0EDB50380B146EFD0E31
:10056000DB50040DF350C00B1410C26EFC0EDBAE5A
:1005700003D09E9C9D8CF28CC280E552E5CFDAFFC1
:06058000E7CFD9FF1200D5
:0A058600D9CFE6FFDACFE6FFE1CFA0
:10059000D9FFE2CFDAFFE6528150DF6EFD0EDBA01D
:1005A00002D0F18E01D0F19EDBAE02D0F28601D0F6
:1005B000F296E552E552E5CFDAFFE7CFD9FF120018
:1005C000FF0EE350196EEF0E01D0F30EE76EE72E2B
:1005D000E7EF02F00C0E186EE76AE72EEDEF02F07F
:0E05E000182EECEF02F0192EE5EF02F01200DB
:0205EE00D9CF63
:1005F000E6FFDACFE6FFE1CFD9FFE2CFDAFFACAC1E
:1006000004D0AC9000018AB3AC80FD0EDB50AD6E1F
:0C061000E552E5CFDAFFE7CFD9FF12007A
:04061C00D9CFE6FF4D
:10062000DACFE6FFE1CFD9FFE2CFDAFFC70EC2147F
:10063000146EFD0EDB50380B1410C26EE552E5CF80
:08064000DAFFE7CFD9FF120039
:0806480015EE00F025EE00F0B4
:10065000F86A019CE6EC01F04FEC03F05AEC00F074
:04066000FBD71200B2
:0C066400FF0EE350E84E1200000000D032
:0A06700000D000D0E82EFAD71200E7
:06067A00C450176E166A61
:0C068000C3501610F36E17C0F4FF1200F8
:04068C0000EE00F08C
:0A0690000F0EEE6AEA62FDD71200B9
:04069A00C284120004
:02069E00120048
:020000040030CA
:0100010022DC
:010002000DF0
:010003000EEE
:0100050000FA
:010006008178
:00000001FF
